{
  "_format": "hh-sol-artifact-1",
  "contractName": "Airdrop",
  "sourceName": "contracts/AirDrop.sol",
  "abi": [
    {
      "inputs": [
        {
          "internalType": "address",
          "name": "_airdropToken",
          "type": "address"
        }
      ],
      "stateMutability": "nonpayable",
      "type": "constructor"
    },
    {
      "anonymous": false,
      "inputs": [
        {
          "indexed": false,
          "internalType": "address",
          "name": "beneficiary",
          "type": "address"
        }
      ],
      "name": "TokensAirdropped",
      "type": "event"
    },
    {
      "inputs": [],
      "name": "TOKENS_PER_CLAIM",
      "outputs": [
        {
          "internalType": "uint256",
          "name": "",
          "type": "uint256"
        }
      ],
      "stateMutability": "view",
      "type": "function"
    },
    {
      "inputs": [],
      "name": "airdropToken",
      "outputs": [
        {
          "internalType": "contract IERC20",
          "name": "",
          "type": "address"
        }
      ],
      "stateMutability": "view",
      "type": "function"
    },
    {
      "inputs": [],
      "name": "totalTokensWithdrawn",
      "outputs": [
        {
          "internalType": "uint256",
          "name": "",
          "type": "uint256"
        }
      ],
      "stateMutability": "view",
      "type": "function"
    },
    {
      "inputs": [
        {
          "internalType": "address",
          "name": "",
          "type": "address"
        }
      ],
      "name": "wasClaimed",
      "outputs": [
        {
          "internalType": "bool",
          "name": "",
          "type": "bool"
        }
      ],
      "stateMutability": "view",
      "type": "function"
    },
    {
      "inputs": [],
      "name": "withdrawTokens",
      "outputs": [],
      "stateMutability": "nonpayable",
      "type": "function"
    }
  ],
  "bytecode": "0x608060405234801561001057600080fd5b50604051610b16380380610b1683398181016040528101906100329190610114565b600073ffffffffffffffffffffffffffffffffffffffff168173ffffffffffffffffffffffffffffffffffffffff160361006b57600080fd5b806000806101000a81548173ffffffffffffffffffffffffffffffffffffffff021916908373ffffffffffffffffffffffffffffffffffffffff16021790555050610141565b600080fd5b600073ffffffffffffffffffffffffffffffffffffffff82169050919050565b60006100e1826100b6565b9050919050565b6100f1816100d6565b81146100fc57600080fd5b50565b60008151905061010e816100e8565b92915050565b60006020828403121561012a576101296100b1565b5b6000610138848285016100ff565b91505092915050565b6109c6806101506000396000f3fe608060405234801561001057600080fd5b50600436106100575760003560e01c80634d06068a1461005c5780638d8f2adb1461007a578063bd8d8c3214610084578063cac37f93146100b4578063ccfff679146100d2575b600080fd5b6100646100f0565b604051610071919061054c565b60405180910390f35b610082610114565b005b61009e600480360381019061009991906105aa565b61049a565b6040516100ab91906105f2565b60405180910390f35b6100bc6104ba565b6040516100c99190610626565b60405180910390f35b6100da6104c0565b6040516100e79190610626565b60405180910390f35b60008054906101000a900473ffffffffffffffffffffffffffffffffffffffff1681565b68056bc75e2d6310000060008054906101000a900473ffffffffffffffffffffffffffffffffffffffff1673ffffffffffffffffffffffffffffffffffffffff166370a08231306040518263ffffffff1660e01b81526004016101779190610650565b602060405180830381865afa158015610194573d6000803e3d6000fd5b505050506040513d601f19601f820116820180604052508101906101b89190610697565b10156101f9576040517f08c379a00000000000000000000000000000000000000000000000000000000081526004016101f090610721565b60405180910390fd5b3273ffffffffffffffffffffffffffffffffffffffff163373ffffffffffffffffffffffffffffffffffffffff1614610267576040517f08c379a000000000000000000000000000000000000000000000000000000000815260040161025e906107b3565b60405180910390fd5b6000339050600260008273ffffffffffffffffffffffffffffffffffffffff1673ffffffffffffffffffffffffffffffffffffffff16815260200190815260200160002060009054906101000a900460ff16156102f9576040517f08c379a00000000000000000000000000000000000000000000000000000000081526004016102f09061081f565b60405180910390fd5b6001600260003373ffffffffffffffffffffffffffffffffffffffff1673ffffffffffffffffffffffffffffffffffffffff16815260200190815260200160002060006101000a81548160ff02191690831515021790555060008060009054906101000a900473ffffffffffffffffffffffffffffffffffffffff1673ffffffffffffffffffffffffffffffffffffffff1663a9059cbb8368056bc75e2d631000006040518363ffffffff1660e01b81526004016103b892919061083f565b6020604051808303816000875af11580156103d7573d6000803e3d6000fd5b505050506040513d601f19601f820116820180604052508101906103fb9190610894565b90508061043d576040517f08c379a00000000000000000000000000000000000000000000000000000000081526004016104349061090d565b60405180910390fd5b68056bc75e2d6310000060016000828254610458919061095c565b925050819055507fdf23082d2b28b19078bc48141d3fdbfd14390048297d149755a09e7edd8129a98260405161048e9190610650565b60405180910390a15050565b60026020528060005260406000206000915054906101000a900460ff1681565b60015481565b68056bc75e2d6310000081565b600073ffffffffffffffffffffffffffffffffffffffff82169050919050565b6000819050919050565b600061051261050d610508846104cd565b6104ed565b6104cd565b9050919050565b6000610524826104f7565b9050919050565b600061053682610519565b9050919050565b6105468161052b565b82525050565b6000602082019050610561600083018461053d565b92915050565b600080fd5b6000610577826104cd565b9050919050565b6105878161056c565b811461059257600080fd5b50565b6000813590506105a48161057e565b92915050565b6000602082840312156105c0576105bf610567565b5b60006105ce84828501610595565b91505092915050565b60008115159050919050565b6105ec816105d7565b82525050565b600060208201905061060760008301846105e3565b92915050565b6000819050919050565b6106208161060d565b82525050565b600060208201905061063b6000830184610617565b92915050565b61064a8161056c565b82525050565b60006020820190506106656000830184610641565b92915050565b6106748161060d565b811461067f57600080fd5b50565b6000815190506106918161066b565b92915050565b6000602082840312156106ad576106ac610567565b5b60006106bb84828501610682565b91505092915050565b600082825260208201905092915050565b7f4e6f7420656e6f75676820746f6b656e7320746f2061697264726f7000000000600082015250565b600061070b601c836106c4565b9150610716826106d5565b602082019050919050565b6000602082019050818103600083015261073a816106fe565b9050919050565b7f526571756972652074686174206d6573736167652073656e646572206973207460008201527f782d6f726967696e2e0000000000000000000000000000000000000000000000602082015250565b600061079d6029836106c4565b91506107a882610741565b604082019050919050565b600060208201905081810360008301526107cc81610790565b9050919050565b7f416c726561647920636c61696d65642100000000000000000000000000000000600082015250565b60006108096010836106c4565b9150610814826107d3565b602082019050919050565b60006020820190508181036000830152610838816107fc565b9050919050565b60006040820190506108546000830185610641565b6108616020830184610617565b9392505050565b610871816105d7565b811461087c57600080fd5b50565b60008151905061088e81610868565b92915050565b6000602082840312156108aa576108a9610567565b5b60006108b88482850161087f565b91505092915050565b7f546f6b656e207472616e73666572207374617475732069732066616c73652e00600082015250565b60006108f7601f836106c4565b9150610902826108c1565b602082019050919050565b60006020820190508181036000830152610926816108ea565b9050919050565b7f4e487b7100000000000000000000000000000000000000000000000000000000600052601160045260246000fd5b60006109678261060d565b91506109728361060d565b925082820190508082111561098a5761098961092d565b5b9291505056fea26469706673582212200acb0a01bfe3f2e25fcd2b1d6cfd456aad8185d7a5c5071220232d999de3076b64736f6c63430008180033",
  "linkReferences": {},
  "deployedLinkReferences": {}
}