{
  "_format": "hh-sol-artifact-1",
  "contractName": "FarmingC2M",
  "sourceName": "contracts/FarmC2M.sol",
  "abi": [
    {
      "inputs": [
        {
          "internalType": "contract IERC20",
          "name": "_erc20",
          "type": "address"
        },
        {
          "internalType": "uint256",
          "name": "_rewardPerSecond",
          "type": "uint256"
        },
        {
          "internalType": "uint256",
          "name": "_startTimestamp",
          "type": "uint256"
        }
      ],
      "stateMutability": "nonpayable",
      "type": "constructor"
    },
    {
      "inputs": [
        {
          "internalType": "address",
          "name": "target",
          "type": "address"
        }
      ],
      "name": "AddressEmptyCode",
      "type": "error"
    },
    {
      "inputs": [
        {
          "internalType": "address",
          "name": "account",
          "type": "address"
        }
      ],
      "name": "AddressInsufficientBalance",
      "type": "error"
    },
    {
      "inputs": [],
      "name": "FailedInnerCall",
      "type": "error"
    },
    {
      "inputs": [
        {
          "internalType": "address",
          "name": "owner",
          "type": "address"
        }
      ],
      "name": "OwnableInvalidOwner",
      "type": "error"
    },
    {
      "inputs": [
        {
          "internalType": "address",
          "name": "account",
          "type": "address"
        }
      ],
      "name": "OwnableUnauthorizedAccount",
      "type": "error"
    },
    {
      "inputs": [
        {
          "internalType": "address",
          "name": "token",
          "type": "address"
        }
      ],
      "name": "SafeERC20FailedOperation",
      "type": "error"
    },
    {
      "anonymous": false,
      "inputs": [
        {
          "indexed": true,
          "internalType": "address",
          "name": "user",
          "type": "address"
        },
        {
          "indexed": true,
          "internalType": "uint256",
          "name": "pid",
          "type": "uint256"
        },
        {
          "indexed": false,
          "internalType": "uint256",
          "name": "amount",
          "type": "uint256"
        }
      ],
      "name": "Deposit",
      "type": "event"
    },
    {
      "anonymous": false,
      "inputs": [
        {
          "indexed": true,
          "internalType": "address",
          "name": "user",
          "type": "address"
        },
        {
          "indexed": true,
          "internalType": "uint256",
          "name": "pid",
          "type": "uint256"
        },
        {
          "indexed": false,
          "internalType": "uint256",
          "name": "amount",
          "type": "uint256"
        }
      ],
      "name": "EmergencyWithdraw",
      "type": "event"
    },
    {
      "anonymous": false,
      "inputs": [
        {
          "indexed": true,
          "internalType": "address",
          "name": "previousOwner",
          "type": "address"
        },
        {
          "indexed": true,
          "internalType": "address",
          "name": "newOwner",
          "type": "address"
        }
      ],
      "name": "OwnershipTransferred",
      "type": "event"
    },
    {
      "anonymous": false,
      "inputs": [
        {
          "indexed": true,
          "internalType": "address",
          "name": "user",
          "type": "address"
        },
        {
          "indexed": true,
          "internalType": "uint256",
          "name": "pid",
          "type": "uint256"
        },
        {
          "indexed": false,
          "internalType": "uint256",
          "name": "amount",
          "type": "uint256"
        }
      ],
      "name": "Withdraw",
      "type": "event"
    },
    {
      "inputs": [
        {
          "internalType": "uint256",
          "name": "_allocPoint",
          "type": "uint256"
        },
        {
          "internalType": "contract IERC20",
          "name": "_lpToken",
          "type": "address"
        },
        {
          "internalType": "bool",
          "name": "_withUpdate",
          "type": "bool"
        }
      ],
      "name": "add",
      "outputs": [],
      "stateMutability": "nonpayable",
      "type": "function"
    },
    {
      "inputs": [
        {
          "internalType": "uint256",
          "name": "_pid",
          "type": "uint256"
        },
        {
          "internalType": "uint256",
          "name": "_amount",
          "type": "uint256"
        }
      ],
      "name": "deposit",
      "outputs": [],
      "stateMutability": "nonpayable",
      "type": "function"
    },
    {
      "inputs": [
        {
          "internalType": "uint256",
          "name": "_pid",
          "type": "uint256"
        },
        {
          "internalType": "address",
          "name": "_user",
          "type": "address"
        }
      ],
      "name": "deposited",
      "outputs": [
        {
          "internalType": "uint256",
          "name": "",
          "type": "uint256"
        }
      ],
      "stateMutability": "view",
      "type": "function"
    },
    {
      "inputs": [
        {
          "internalType": "uint256",
          "name": "_pid",
          "type": "uint256"
        }
      ],
      "name": "emergencyWithdraw",
      "outputs": [],
      "stateMutability": "nonpayable",
      "type": "function"
    },
    {
      "inputs": [],
      "name": "endTimestamp",
      "outputs": [
        {
          "internalType": "uint256",
          "name": "",
          "type": "uint256"
        }
      ],
      "stateMutability": "view",
      "type": "function"
    },
    {
      "inputs": [],
      "name": "erc20",
      "outputs": [
        {
          "internalType": "contract IERC20",
          "name": "",
          "type": "address"
        }
      ],
      "stateMutability": "view",
      "type": "function"
    },
    {
      "inputs": [
        {
          "internalType": "uint256",
          "name": "_amount",
          "type": "uint256"
        }
      ],
      "name": "fund",
      "outputs": [],
      "stateMutability": "nonpayable",
      "type": "function"
    },
    {
      "inputs": [],
      "name": "massUpdatePools",
      "outputs": [],
      "stateMutability": "nonpayable",
      "type": "function"
    },
    {
      "inputs": [],
      "name": "owner",
      "outputs": [
        {
          "internalType": "address",
          "name": "",
          "type": "address"
        }
      ],
      "stateMutability": "view",
      "type": "function"
    },
    {
      "inputs": [],
      "name": "paidOut",
      "outputs": [
        {
          "internalType": "uint256",
          "name": "",
          "type": "uint256"
        }
      ],
      "stateMutability": "view",
      "type": "function"
    },
    {
      "inputs": [
        {
          "internalType": "uint256",
          "name": "_pid",
          "type": "uint256"
        },
        {
          "internalType": "address",
          "name": "_user",
          "type": "address"
        }
      ],
      "name": "pending",
      "outputs": [
        {
          "internalType": "uint256",
          "name": "",
          "type": "uint256"
        }
      ],
      "stateMutability": "view",
      "type": "function"
    },
    {
      "inputs": [
        {
          "internalType": "uint256",
          "name": "",
          "type": "uint256"
        }
      ],
      "name": "poolInfo",
      "outputs": [
        {
          "internalType": "contract IERC20",
          "name": "lpToken",
          "type": "address"
        },
        {
          "internalType": "uint256",
          "name": "allocPoint",
          "type": "uint256"
        },
        {
          "internalType": "uint256",
          "name": "lastRewardTimestamp",
          "type": "uint256"
        },
        {
          "internalType": "uint256",
          "name": "accERC20PerShare",
          "type": "uint256"
        },
        {
          "internalType": "uint256",
          "name": "totalDeposits",
          "type": "uint256"
        }
      ],
      "stateMutability": "view",
      "type": "function"
    },
    {
      "inputs": [],
      "name": "poolLength",
      "outputs": [
        {
          "internalType": "uint256",
          "name": "",
          "type": "uint256"
        }
      ],
      "stateMutability": "view",
      "type": "function"
    },
    {
      "inputs": [],
      "name": "renounceOwnership",
      "outputs": [],
      "stateMutability": "nonpayable",
      "type": "function"
    },
    {
      "inputs": [],
      "name": "rewardPerSecond",
      "outputs": [
        {
          "internalType": "uint256",
          "name": "",
          "type": "uint256"
        }
      ],
      "stateMutability": "view",
      "type": "function"
    },
    {
      "inputs": [],
      "name": "startTimestamp",
      "outputs": [
        {
          "internalType": "uint256",
          "name": "",
          "type": "uint256"
        }
      ],
      "stateMutability": "view",
      "type": "function"
    },
    {
      "inputs": [],
      "name": "totalAllocPoint",
      "outputs": [
        {
          "internalType": "uint256",
          "name": "",
          "type": "uint256"
        }
      ],
      "stateMutability": "view",
      "type": "function"
    },
    {
      "inputs": [],
      "name": "totalPending",
      "outputs": [
        {
          "internalType": "uint256",
          "name": "",
          "type": "uint256"
        }
      ],
      "stateMutability": "view",
      "type": "function"
    },
    {
      "inputs": [],
      "name": "totalRewards",
      "outputs": [
        {
          "internalType": "uint256",
          "name": "",
          "type": "uint256"
        }
      ],
      "stateMutability": "view",
      "type": "function"
    },
    {
      "inputs": [
        {
          "internalType": "address",
          "name": "newOwner",
          "type": "address"
        }
      ],
      "name": "transferOwnership",
      "outputs": [],
      "stateMutability": "nonpayable",
      "type": "function"
    },
    {
      "inputs": [
        {
          "internalType": "uint256",
          "name": "_pid",
          "type": "uint256"
        }
      ],
      "name": "updatePool",
      "outputs": [],
      "stateMutability": "nonpayable",
      "type": "function"
    },
    {
      "inputs": [
        {
          "internalType": "uint256",
          "name": "",
          "type": "uint256"
        },
        {
          "internalType": "address",
          "name": "",
          "type": "address"
        }
      ],
      "name": "userInfo",
      "outputs": [
        {
          "internalType": "uint256",
          "name": "amount",
          "type": "uint256"
        },
        {
          "internalType": "uint256",
          "name": "rewardDebt",
          "type": "uint256"
        }
      ],
      "stateMutability": "view",
      "type": "function"
    },
    {
      "inputs": [
        {
          "internalType": "uint256",
          "name": "_pid",
          "type": "uint256"
        },
        {
          "internalType": "uint256",
          "name": "_amount",
          "type": "uint256"
        }
      ],
      "name": "withdraw",
      "outputs": [],
      "stateMutability": "nonpayable",
      "type": "function"
    }
  ],
  "bytecode": "0x6080604052620000146200019060201b60201c565b600a60006101000a81548173ffffffffffffffffffffffffffffffffffffffff021916908373ffffffffffffffffffffffffffffffffffffffff1602179055503480156200006157600080fd5b50604051620023c5380380620023c5833981810160405281019062000087919062000315565b600a60009054906101000a900473ffffffffffffffffffffffffffffffffffffffff16600073ffffffffffffffffffffffffffffffffffffffff168173ffffffffffffffffffffffffffffffffffffffff16036200011f5760006040517f1e4fbdf700000000000000000000000000000000000000000000000000000000815260040162000116919062000382565b60405180910390fd5b62000130816200019860201b60201c565b5082600160006101000a81548173ffffffffffffffffffffffffffffffffffffffff021916908373ffffffffffffffffffffffffffffffffffffffff1602179055508160038190555080600881905550806009819055505050506200039f565b600033905090565b60008060009054906101000a900473ffffffffffffffffffffffffffffffffffffffff169050816000806101000a81548173ffffffffffffffffffffffffffffffffffffffff021916908373ffffffffffffffffffffffffffffffffffffffff1602179055508173ffffffffffffffffffffffffffffffffffffffff168173ffffffffffffffffffffffffffffffffffffffff167f8be0079c531659141344cd1fd0a4f28419497f9722a3daafe3b4186f6b6457e060405160405180910390a35050565b600080fd5b600073ffffffffffffffffffffffffffffffffffffffff82169050919050565b60006200028e8262000261565b9050919050565b6000620002a28262000281565b9050919050565b620002b48162000295565b8114620002c057600080fd5b50565b600081519050620002d481620002a9565b92915050565b6000819050919050565b620002ef81620002da565b8114620002fb57600080fd5b50565b6000815190506200030f81620002e4565b92915050565b6000806000606084860312156200033157620003306200025c565b5b60006200034186828701620002c3565b93505060206200035486828701620002fe565b92505060406200036786828701620002fe565b9150509250925092565b6200037c8162000281565b82525050565b600060208201905062000399600083018462000371565b92915050565b61201680620003af6000396000f3fe608060405234801561001057600080fd5b506004361061014d5760003560e01c8063715018a6116100c3578063a85adeab1161007c578063a85adeab1461035b578063ca1d209d14610379578063e2bbb15814610395578063e4c75c27146103b1578063e6fd48bc146103e1578063f2fde38b146103ff5761014d565b8063715018a614610296578063785e9e86146102a05780638da5cb5b146102be5780638f10369a146102dc57806393f1a40b146102fa578063a23831061461032b5761014d565b80633f90916a116101155780633f90916a146101fc578063441a3e701461021a57806351eb05a6146102365780635312ea8e146102525780635c76ca2d1461026e578063630b5ba11461028c5761014d565b8063081e3eda146101525780630e15561a146101705780631526fe271461018e57806317caf6f1146101c25780631eaaa045146101e0575b600080fd5b61015a61041b565b6040516101679190611742565b60405180910390f35b610178610428565b6040516101859190611742565b60405180910390f35b6101a860048036038101906101a3919061178e565b61042e565b6040516101b995949392919061183a565b60405180910390f35b6101ca610494565b6040516101d79190611742565b60405180910390f35b6101fa60048036038101906101f59190611915565b61049a565b005b6102046105c2565b6040516102119190611742565b60405180910390f35b610234600480360381019061022f9190611968565b61061c565b005b610250600480360381019061024b919061178e565b610842565b005b61026c6004803603810190610267919061178e565b6109cf565b005b610276610b24565b6040516102839190611742565b60405180910390f35b610294610b2a565b005b61029e610b57565b005b6102a8610b6b565b6040516102b591906119a8565b60405180910390f35b6102c6610b91565b6040516102d391906119d2565b60405180910390f35b6102e4610bba565b6040516102f19190611742565b60405180910390f35b610314600480360381019061030f9190611a19565b610bc0565b604051610322929190611a59565b60405180910390f35b61034560048036038101906103409190611a19565b610bf1565b6040516103529190611742565b60405180910390f35b610363610c54565b6040516103709190611742565b60405180910390f35b610393600480360381019061038e919061178e565b610c5a565b005b6103af60048036038101906103aa9190611968565b610d2f565b005b6103cb60048036038101906103c69190611a19565b610f1e565b6040516103d89190611742565b60405180910390f35b6103e961113d565b6040516103f69190611742565b60405180910390f35b61041960048036038101906104149190611a82565b611143565b005b6000600580549050905090565b60045481565b6005818154811061043e57600080fd5b90600052602060002090600502016000915090508060000160009054906101000a900473ffffffffffffffffffffffffffffffffffffffff16908060010154908060020154908060030154908060040154905085565b60075481565b6104a26111c9565b80156104b1576104b0610b2a565b5b600060085442116104c4576008546104c6565b425b905083600760008282546104da9190611ade565b9250508190555060056040518060a001604052808573ffffffffffffffffffffffffffffffffffffffff168152602001868152602001838152602001600081526020016000815250908060018154018082558091505060019003906000526020600020906005020160009091909190915060008201518160000160006101000a81548173ffffffffffffffffffffffffffffffffffffffff021916908373ffffffffffffffffffffffffffffffffffffffff16021790555060208201518160010155604082015181600201556060820151816003015560808201518160040155505050505050565b600060085442116105d65760009050610619565b600060095442106105e9576009546105eb565b425b9050600254600854826105fe9190611b12565b60035461060b9190611b46565b6106159190611b12565b9150505b90565b60006005838154811061063257610631611b88565b5b9060005260206000209060050201905060006006600085815260200190815260200160002060003373ffffffffffffffffffffffffffffffffffffffff1673ffffffffffffffffffffffffffffffffffffffff168152602001908152602001600020905082816000015410156106dd576040517f08c379a00000000000000000000000000000000000000000000000000000000081526004016106d490611c3a565b60405180910390fd5b6106e684610842565b600081600101546ec097ce7bc90715b34b9f1000000000846003015484600001546107119190611b46565b61071b9190611c89565b6107259190611b12565b90506107313382611250565b838260000160008282546107459190611b12565b925050819055506ec097ce7bc90715b34b9f1000000000836003015483600001546107709190611b46565b61077a9190611c89565b82600101819055506107d133858560000160009054906101000a900473ffffffffffffffffffffffffffffffffffffffff1673ffffffffffffffffffffffffffffffffffffffff1661130e9092919063ffffffff16565b838360040160008282546107e59190611b12565b92505081905550843373ffffffffffffffffffffffffffffffffffffffff167ff279e6a1f5e320cca91135676d9cb6e44ca8a08c0b88342bcdb1144f6511b568866040516108339190611742565b60405180910390a35050505050565b60006005828154811061085857610857611b88565b5b906000526020600020906005020190506000600954421061087b5760095461087d565b425b9050816002015481116108915750506109cc565b600082600401549050600081036108b3578183600201819055505050506109cc565b60008360020154836108c59190611b12565b905060006007541161090c576040517f08c379a000000000000000000000000000000000000000000000000000000000815260040161090390611d06565b60405180910390fd5b60006007548560010154600354846109249190611b46565b61092e9190611b46565b6109389190611c89565b90506000831161097d576040517f08c379a000000000000000000000000000000000000000000000000000000000815260040161097490611d72565b60405180910390fd5b826ec097ce7bc90715b34b9f1000000000826109999190611b46565b6109a39190611c89565b8560030160008282546109b69190611ade565b9250508190555042856002018190555050505050505b50565b6000600582815481106109e5576109e4611b88565b5b9060005260206000209060050201905060006006600084815260200190815260200160002060003373ffffffffffffffffffffffffffffffffffffffff1673ffffffffffffffffffffffffffffffffffffffff1681526020019081526020016000209050610a9c3382600001548460000160009054906101000a900473ffffffffffffffffffffffffffffffffffffffff1673ffffffffffffffffffffffffffffffffffffffff1661130e9092919063ffffffff16565b80600001548260040154610ab09190611b12565b8260040181905550823373ffffffffffffffffffffffffffffffffffffffff167fbb757047c2b5f3974fe26b7c10f732e7bce710b0952a71082702781e62ae05958360000154604051610b039190611742565b60405180910390a36000816000018190555060008160010181905550505050565b60025481565b6000600580549050905060005b81811015610b5357610b4881610842565b806001019050610b37565b5050565b610b5f6111c9565b610b69600061138d565b565b600160009054906101000a900473ffffffffffffffffffffffffffffffffffffffff1681565b60008060009054906101000a900473ffffffffffffffffffffffffffffffffffffffff16905090565b60035481565b6006602052816000526040600020602052806000526040600020600091509150508060000154908060010154905082565b6000806006600085815260200190815260200160002060008473ffffffffffffffffffffffffffffffffffffffff1673ffffffffffffffffffffffffffffffffffffffff1681526020019081526020016000209050806000015491505092915050565b60095481565b6009544210610c9e576040517f08c379a0000000000000000000000000000000000000000000000000000000008152600401610c9590611e04565b60405180910390fd5b610ced333083600160009054906101000a900473ffffffffffffffffffffffffffffffffffffffff1673ffffffffffffffffffffffffffffffffffffffff16611451909392919063ffffffff16565b60035481610cfb9190611c89565b60096000828254610d0c9190611ade565b925050819055508060046000828254610d259190611ade565b9250508190555050565b600060058381548110610d4557610d44611b88565b5b9060005260206000209060050201905060006006600085815260200190815260200160002060003373ffffffffffffffffffffffffffffffffffffffff1673ffffffffffffffffffffffffffffffffffffffff1681526020019081526020016000209050610db284610842565b600081600001541115610e0c57600081600101546ec097ce7bc90715b34b9f100000000084600301548460000154610dea9190611b46565b610df49190611c89565b610dfe9190611b12565b9050610e0a3382611250565b505b610e5d3330858560000160009054906101000a900473ffffffffffffffffffffffffffffffffffffffff1673ffffffffffffffffffffffffffffffffffffffff16611451909392919063ffffffff16565b82826004016000828254610e719190611ade565b9250508190555082816000016000828254610e8c9190611ade565b925050819055506ec097ce7bc90715b34b9f100000000082600301548260000154610eb79190611b46565b610ec19190611c89565b8160010181905550833373ffffffffffffffffffffffffffffffffffffffff167f90890809c654f11d6e72a28fa60149770a0d11ec6c92319d6ceb2bb0a4ea1a1585604051610f109190611742565b60405180910390a350505050565b60008060058481548110610f3557610f34611b88565b5b9060005260206000209060050201905060006006600086815260200190815260200160002060008573ffffffffffffffffffffffffffffffffffffffff1673ffffffffffffffffffffffffffffffffffffffff1681526020019081526020016000209050600082600301549050600083600401549050836002015442118015610fbf575060008114155b156110f85760006009544210610fd757600954610fd9565b425b90506000600954866002015410610ff257600954610ff8565b85600201545b9050600081836110089190611b12565b905060006007541161104f576040517f08c379a000000000000000000000000000000000000000000000000000000000815260040161104690611e96565b60405180910390fd5b600060075488600101546110639190611c89565b600354836110719190611b46565b61107b9190611b46565b9050600085116110c0576040517f08c379a00000000000000000000000000000000000000000000000000000000081526004016110b790611d72565b60405180910390fd5b846ec097ce7bc90715b34b9f1000000000826110dc9190611b46565b6110e69190611c89565b866110f19190611ade565b9550505050505b82600101546ec097ce7bc90715b34b9f100000000083856000015461111d9190611b46565b6111279190611c89565b6111319190611b12565b94505050505092915050565b60085481565b61114b6111c9565b600073ffffffffffffffffffffffffffffffffffffffff168173ffffffffffffffffffffffffffffffffffffffff16036111bd5760006040517f1e4fbdf70000000000000000000000000000000000000000000000000000000081526004016111b491906119d2565b60405180910390fd5b6111c68161138d565b50565b6111d16114d3565b73ffffffffffffffffffffffffffffffffffffffff166111ef610b91565b73ffffffffffffffffffffffffffffffffffffffff161461124e576112126114d3565b6040517f118cdaa700000000000000000000000000000000000000000000000000000000815260040161124591906119d2565b60405180910390fd5b565b600160009054906101000a900473ffffffffffffffffffffffffffffffffffffffff1673ffffffffffffffffffffffffffffffffffffffff1663a9059cbb83836040518363ffffffff1660e01b81526004016112ad929190611eb6565b6020604051808303816000875af11580156112cc573d6000803e3d6000fd5b505050506040513d601f19601f820116820180604052508101906112f09190611ef4565b5080600260008282546113039190611ade565b925050819055505050565b611388838473ffffffffffffffffffffffffffffffffffffffff1663a9059cbb8585604051602401611341929190611eb6565b604051602081830303815290604052915060e01b6020820180517bffffffffffffffffffffffffffffffffffffffffffffffffffffffff83818316178352505050506114db565b505050565b60008060009054906101000a900473ffffffffffffffffffffffffffffffffffffffff169050816000806101000a81548173ffffffffffffffffffffffffffffffffffffffff021916908373ffffffffffffffffffffffffffffffffffffffff1602179055508173ffffffffffffffffffffffffffffffffffffffff168173ffffffffffffffffffffffffffffffffffffffff167f8be0079c531659141344cd1fd0a4f28419497f9722a3daafe3b4186f6b6457e060405160405180910390a35050565b6114cd848573ffffffffffffffffffffffffffffffffffffffff166323b872dd86868660405160240161148693929190611f21565b604051602081830303815290604052915060e01b6020820180517bffffffffffffffffffffffffffffffffffffffffffffffffffffffff83818316178352505050506114db565b50505050565b600033905090565b6000611506828473ffffffffffffffffffffffffffffffffffffffff1661157290919063ffffffff16565b9050600081511415801561152b5750808060200190518101906115299190611ef4565b155b1561156d57826040517f5274afe700000000000000000000000000000000000000000000000000000000815260040161156491906119d2565b60405180910390fd5b505050565b606061158083836000611588565b905092915050565b6060814710156115cf57306040517fcd7860590000000000000000000000000000000000000000000000000000000081526004016115c691906119d2565b60405180910390fd5b6000808573ffffffffffffffffffffffffffffffffffffffff1684866040516115f89190611fc9565b60006040518083038185875af1925050503d8060008114611635576040519150601f19603f3d011682016040523d82523d6000602084013e61163a565b606091505b509150915061164a868383611655565b925050509392505050565b60608261166a57611665826116e4565b6116dc565b60008251148015611692575060008473ffffffffffffffffffffffffffffffffffffffff163b145b156116d457836040517f9996b3150000000000000000000000000000000000000000000000000000000081526004016116cb91906119d2565b60405180910390fd5b8190506116dd565b5b9392505050565b6000815111156116f75780518082602001fd5b6040517f1425ea4200000000000000000000000000000000000000000000000000000000815260040160405180910390fd5b6000819050919050565b61173c81611729565b82525050565b60006020820190506117576000830184611733565b92915050565b600080fd5b61176b81611729565b811461177657600080fd5b50565b60008135905061178881611762565b92915050565b6000602082840312156117a4576117a361175d565b5b60006117b284828501611779565b91505092915050565b600073ffffffffffffffffffffffffffffffffffffffff82169050919050565b6000819050919050565b60006118006117fb6117f6846117bb565b6117db565b6117bb565b9050919050565b6000611812826117e5565b9050919050565b600061182482611807565b9050919050565b61183481611819565b82525050565b600060a08201905061184f600083018861182b565b61185c6020830187611733565b6118696040830186611733565b6118766060830185611733565b6118836080830184611733565b9695505050505050565b6000611898826117bb565b9050919050565b60006118aa8261188d565b9050919050565b6118ba8161189f565b81146118c557600080fd5b50565b6000813590506118d7816118b1565b92915050565b60008115159050919050565b6118f2816118dd565b81146118fd57600080fd5b50565b60008135905061190f816118e9565b92915050565b60008060006060848603121561192e5761192d61175d565b5b600061193c86828701611779565b935050602061194d868287016118c8565b925050604061195e86828701611900565b9150509250925092565b6000806040838503121561197f5761197e61175d565b5b600061198d85828601611779565b925050602061199e85828601611779565b9150509250929050565b60006020820190506119bd600083018461182b565b92915050565b6119cc8161188d565b82525050565b60006020820190506119e760008301846119c3565b92915050565b6119f68161188d565b8114611a0157600080fd5b50565b600081359050611a13816119ed565b92915050565b60008060408385031215611a3057611a2f61175d565b5b6000611a3e85828601611779565b9250506020611a4f85828601611a04565b9150509250929050565b6000604082019050611a6e6000830185611733565b611a7b6020830184611733565b9392505050565b600060208284031215611a9857611a9761175d565b5b6000611aa684828501611a04565b91505092915050565b7f4e487b7100000000000000000000000000000000000000000000000000000000600052601160045260246000fd5b6000611ae982611729565b9150611af483611729565b9250828201905080821115611b0c57611b0b611aaf565b5b92915050565b6000611b1d82611729565b9150611b2883611729565b9250828203905081811115611b4057611b3f611aaf565b5b92915050565b6000611b5182611729565b9150611b5c83611729565b9250828202611b6a81611729565b91508282048414831517611b8157611b80611aaf565b5b5092915050565b7f4e487b7100000000000000000000000000000000000000000000000000000000600052603260045260246000fd5b600082825260208201905092915050565b7f77697468647261773a2063616e2774207769746864726177206d6f726520746860008201527f616e206465706f73697400000000000000000000000000000000000000000000602082015250565b6000611c24602a83611bb7565b9150611c2f82611bc8565b604082019050919050565b60006020820190508181036000830152611c5381611c17565b9050919050565b7f4e487b7100000000000000000000000000000000000000000000000000000000600052601260045260246000fd5b6000611c9482611729565b9150611c9f83611729565b925082611caf57611cae611c5a565b5b828204905092915050565b7f546f74616c20616c6c6f6320706f696e742063616e6e6f74206265207a65726f600082015250565b6000611cf0602083611bb7565b9150611cfb82611cba565b602082019050919050565b60006020820190508181036000830152611d1f81611ce3565b9050919050565b7f4c5020737570706c792063616e6e6f74206265207a65726f0000000000000000600082015250565b6000611d5c601883611bb7565b9150611d6782611d26565b602082019050919050565b60006020820190508181036000830152611d8b81611d4f565b9050919050565b7f66756e643a20746f6f206c6174652c20746865206661726d20697320636c6f7360008201527f6564000000000000000000000000000000000000000000000000000000000000602082015250565b6000611dee602283611bb7565b9150611df982611d92565b604082019050919050565b60006020820190508181036000830152611e1d81611de1565b9050919050565b7f546f74616c20616c6c6f636174696f6e20706f696e742063616e6e6f7420626560008201527f207a65726f000000000000000000000000000000000000000000000000000000602082015250565b6000611e80602583611bb7565b9150611e8b82611e24565b604082019050919050565b60006020820190508181036000830152611eaf81611e73565b9050919050565b6000604082019050611ecb60008301856119c3565b611ed86020830184611733565b9392505050565b600081519050611eee816118e9565b92915050565b600060208284031215611f0a57611f0961175d565b5b6000611f1884828501611edf565b91505092915050565b6000606082019050611f3660008301866119c3565b611f4360208301856119c3565b611f506040830184611733565b949350505050565b600081519050919050565b600081905092915050565b60005b83811015611f8c578082015181840152602081019050611f71565b60008484015250505050565b6000611fa382611f58565b611fad8185611f63565b9350611fbd818560208601611f6e565b80840191505092915050565b6000611fd58284611f98565b91508190509291505056fea26469706673582212206b0aa2cf309645816f0ea3d49dff374887a91946de45cb44302ebf8d870e985264736f6c63430008180033",
  "linkReferences": {},
  "deployedLinkReferences": {}
}